{"abi":[{"type":"constructor","inputs":[{"name":"_passport","type":"address","internalType":"address"},{"name":"_forwarder","type":"address","internalType":"address"},{"name":"_relayManager","type":"address","internalType":"address"}],"stateMutability":"nonpayable"},{"type":"function","name":"bestOfDay","inputs":[{"name":"","type":"uint256","internalType":"uint256"}],"outputs":[{"name":"player","type":"address","internalType":"address"},{"name":"fid","type":"uint256","internalType":"uint256"},{"name":"bestHash","type":"bytes32","internalType":"bytes32"},{"name":"submittedAt","type":"uint256","internalType":"uint256"},{"name":"submits","type":"uint256","internalType":"uint256"}],"stateMutability":"view"},{"type":"function","name":"cooldownSeconds","inputs":[],"outputs":[{"name":"","type":"uint256","internalType":"uint256"}],"stateMutability":"view"},{"type":"function","name":"day","inputs":[],"outputs":[{"name":"","type":"uint256","internalType":"uint256"}],"stateMutability":"view"},{"type":"function","name":"epochSeconds","inputs":[],"outputs":[{"name":"","type":"uint256","internalType":"uint256"}],"stateMutability":"view"},{"type":"function","name":"forceRoll","inputs":[],"outputs":[],"stateMutability":"nonpayable"},{"type":"function","name":"getLeaderboard","inputs":[{"name":"dayIndex","type":"uint256","internalType":"uint256"}],"outputs":[{"name":"player","type":"address","internalType":"address"},{"name":"fid","type":"uint256","internalType":"uint256"},{"name":"bestHash","type":"bytes32","internalType":"bytes32"},{"name":"submittedAt","type":"uint256","internalType":"uint256"},{"name":"submits","type":"uint256","internalType":"uint256"}],"stateMutability":"view"},{"type":"function","name":"isTrustedForwarder","inputs":[{"name":"forwarder","type":"address","internalType":"address"}],"outputs":[{"name":"","type":"bool","internalType":"bool"}],"stateMutability":"view"},{"type":"function","name":"lastSubmitAt","inputs":[{"name":"","type":"uint256","internalType":"uint256"},{"name":"","type":"address","internalType":"address"}],"outputs":[{"name":"","type":"uint256","internalType":"uint256"}],"stateMutability":"view"},{"type":"function","name":"owner","inputs":[],"outputs":[{"name":"","type":"address","internalType":"address"}],"stateMutability":"view"},{"type":"function","name":"passport","inputs":[],"outputs":[{"name":"","type":"address","internalType":"contract IPassport"}],"stateMutability":"view"},{"type":"function","name":"paused","inputs":[],"outputs":[{"name":"","type":"bool","internalType":"bool"}],"stateMutability":"view"},{"type":"function","name":"relayManager","inputs":[],"outputs":[{"name":"","type":"address","internalType":"contract IRelayManager"}],"stateMutability":"view"},{"type":"function","name":"rollIfNeeded","inputs":[],"outputs":[],"stateMutability":"nonpayable"},{"type":"function","name":"rolledAt","inputs":[],"outputs":[{"name":"","type":"uint256","internalType":"uint256"}],"stateMutability":"view"},{"type":"function","name":"seed","inputs":[],"outputs":[{"name":"","type":"bytes32","internalType":"bytes32"}],"stateMutability":"view"},{"type":"function","name":"setCooldown","inputs":[{"name":"s","type":"uint256","internalType":"uint256"}],"outputs":[],"stateMutability":"nonpayable"},{"type":"function","name":"setEpochSeconds","inputs":[{"name":"s","type":"uint256","internalType":"uint256"}],"outputs":[],"stateMutability":"nonpayable"},{"type":"function","name":"setPassport","inputs":[{"name":"_passport","type":"address","internalType":"address"}],"outputs":[],"stateMutability":"nonpayable"},{"type":"function","name":"setPaused","inputs":[{"name":"p","type":"bool","internalType":"bool"}],"outputs":[],"stateMutability":"nonpayable"},{"type":"function","name":"setRelayManager","inputs":[{"name":"r","type":"address","internalType":"address"}],"outputs":[],"stateMutability":"nonpayable"},{"type":"function","name":"setTrustedForwarder","inputs":[{"name":"fwd","type":"address","internalType":"address"}],"outputs":[],"stateMutability":"nonpayable"},{"type":"function","name":"submit","inputs":[{"name":"nonce","type":"bytes32","internalType":"bytes32"}],"outputs":[],"stateMutability":"nonpayable"},{"type":"function","name":"transferOwnership","inputs":[{"name":"newOwner","type":"address","internalType":"address"}],"outputs":[],"stateMutability":"nonpayable"},{"type":"function","name":"trustedForwarder","inputs":[],"outputs":[{"name":"","type":"address","internalType":"address"}],"stateMutability":"view"},{"type":"event","name":"OwnershipTransferred","inputs":[{"name":"previousOwner","type":"address","indexed":true,"internalType":"address"},{"name":"newOwner","type":"address","indexed":true,"internalType":"address"}],"anonymous":false},{"type":"event","name":"ParamsUpdated","inputs":[{"name":"passport","type":"address","indexed":false,"internalType":"address"},{"name":"forwarder","type":"address","indexed":false,"internalType":"address"},{"name":"relay","type":"address","indexed":false,"internalType":"address"},{"name":"cooldown","type":"uint256","indexed":false,"internalType":"uint256"},{"name":"epoch","type":"uint256","indexed":false,"internalType":"uint256"},{"name":"paused","type":"bool","indexed":false,"internalType":"bool"}],"anonymous":false},{"type":"event","name":"Rolled","inputs":[{"name":"day","type":"uint256","indexed":true,"internalType":"uint256"},{"name":"seed","type":"bytes32","indexed":false,"internalType":"bytes32"}],"anonymous":false},{"type":"event","name":"Submitted","inputs":[{"name":"day","type":"uint256","indexed":true,"internalType":"uint256"},{"name":"player","type":"address","indexed":true,"internalType":"address"},{"name":"fid","type":"uint256","indexed":false,"internalType":"uint256"},{"name":"h","type":"bytes32","indexed":false,"internalType":"bytes32"},{"name":"at","type":"uint256","indexed":false,"internalType":"uint256"}],"anonymous":false},{"type":"event","name":"TrustedForwarderChanged","inputs":[{"name":"previous","type":"address","indexed":true,"internalType":"address"},{"name":"current","type":"address","indexed":true,"internalType":"address"}],"anonymous":false}],"bytecode":{"object":"0x60806040523480156200001157600080fd5b506040516200115c3803806200115c8339810160408190526200003491620001ff565b600080546001600160a01b0319163390811782556040519091907f8be0079c531659141344cd1fd0a4f28419497f9722a3daafe3b4186f6b6457e0908290a3600280546001600160a01b0319166001600160a01b0385161790556200009982620000d3565b600380546001600160a01b0319166001600160a01b038316179055603c60045562015180600555620000ca6200012f565b50505062000294565b6001546040516001600160a01b038084169216907f06dff7401eb7fb04d241246ade7f817c7ad512b1bed61c18aedd9bc51eec047590600090a3600180546001600160a01b0319166001600160a01b0392909216919091179055565b62000139620001cb565b6007556200014960014362000249565b60075460408051924060208401526001600160601b03193060601b1690830152605482015260740160408051808303601f190181529190528051602090910120600855426009556007546008546040519081527f8e8e4b260c329debf414481814c4ff0f4b88c03ae515e005801d54a1411a71219060200160405180910390a2565b600554600090620001dd904262000271565b905090565b80516001600160a01b0381168114620001fa57600080fd5b919050565b6000806000606084860312156200021557600080fd5b6200022084620001e2565b92506200023060208501620001e2565b91506200024060408501620001e2565b90509250925092565b818103818111156200026b57634e487b7160e01b600052601160045260246000fd5b92915050565b6000826200028f57634e487b7160e01b600052601260045260246000fd5b500490565b610eb880620002a46000396000f3fe608060405234801561001057600080fd5b50600436106101585760003560e01c80637b76ac91116100c3578063b8221bc41161007c578063b8221bc4146103a7578063cbc9023c146103b0578063d9caa3d2146103b8578063da742228146103cb578063f2fde38b146103de578063fb5bb0c3146103f157600080fd5b80637b76ac91146102d85780637d94792a146102e15780637da0a877146102ea5780638da5cb5b146102fd5780639db9e3bb14610310578063a34b46fe1461033b57600080fd5b806355b5d88b1161011557806355b5d88b14610258578063572b6c051461026b57806359ae72791461029d5780635c975abb146102a5578063671a6d8b146102b25780636c670d70146102c557600080fd5b80630a812c291461015d57806316c38b3c1461017257806317ba9c4d1461018557806340e5e356146101b557806342d435db1461022e5780634fc3f41a14610245575b600080fd5b61017061016b366004610d17565b6103fa565b005b610170610180366004610d3e565b610492565b600254610198906001600160a01b031681565b6040516001600160a01b0390911681526020015b60405180910390f35b6101fc6101c3366004610d17565b600a60205260009081526040902080546001820154600283015460038401546004909401546001600160a01b0390931693919290919085565b604080516001600160a01b0390961686526020860194909452928401919091526060830152608082015260a0016101ac565b61023760095481565b6040519081526020016101ac565b610170610253366004610d17565b6104d2565b600354610198906001600160a01b031681565b61028d610279366004610d7e565b6001546001600160a01b0391821691161490565b60405190151581526020016101ac565b610170610550565b60065461028d9060ff1681565b6101706102c0366004610d7e565b61056b565b6101706102d3366004610d7e565b6105b8565b61023760075481565b61023760085481565b600154610198906001600160a01b031681565b600054610198906001600160a01b031681565b61023761031e366004610d99565b600b60209081526000928352604080842090915290825290205481565b6101fc610349366004610d17565b6000908152600a6020908152604091829020825160a08101845281546001600160a01b031680825260018301549382018490526002830154948201859052600383015460608301819052600490930154608090920182905294929392565b61023760045481565b610170610605565b6101706103c6366004610d17565b610637565b6101706103d9366004610d7e565b610a54565b6101706103ec366004610d7e565b610a8f565b61023760055481565b6000546001600160a01b0316331461042d5760405162461bcd60e51b815260040161042490610dc5565b60405180910390fd5b603c811015801561044157506202a3008111155b6104825760405162461bcd60e51b815260206004820152601260248201527165706f6368206f7574206f662072616e676560701b6044820152606401610424565b600581905561048f610b56565b50565b6000546001600160a01b031633146104bc5760405162461bcd60e51b815260040161042490610dc5565b6006805460ff191682151517905561048f610b56565b6000546001600160a01b031633146104fc5760405162461bcd60e51b815260040161042490610dc5565b610e108111156105435760405162461bcd60e51b8152602060048201526012602482015271636f6f6c646f776e20746f6f206c6172676560701b6044820152606401610424565b600481905561048f610b56565b60075461055b610bce565b111561056957610569610be9565b565b6000546001600160a01b031633146105955760405162461bcd60e51b815260040161042490610dc5565b600380546001600160a01b0319166001600160a01b03831617905561048f610b56565b6000546001600160a01b031633146105e25760405162461bcd60e51b815260040161042490610dc5565b600280546001600160a01b0319166001600160a01b03831617905561048f610b56565b6000546001600160a01b0316331461062f5760405162461bcd60e51b815260040161042490610dc5565b610569610be9565b60065460ff16156106735760405162461bcd60e51b81526020600482015260066024820152651c185d5cd95960d21b6044820152606401610424565b60075461067e610bce565b111561068c5761068c610be9565b6000610696610c86565b60025460405163c63dc1c760e01b81526001600160a01b0380841660048301529293506000929091169063c63dc1c790602401602060405180830381865afa1580156106e6573d6000803e3d6000fd5b505050506040513d601f19601f8201168201806040525081019061070a9190610de8565b9050806000036107505760405162461bcd60e51b815260206004820152601160248201527014185cdcdc1bdc9d081c995c5d5a5c9959607a1b6044820152606401610424565b6003546001600160a01b031615610822576003546040516376eaa76d60e01b81526001600160a01b038481166004830152600080356001600160e01b03191660248401529216906376eaa76d906044016020604051808303816000875af11580156107bf573d6000803e3d6000fd5b505050506040513d601f19601f820116820180604052508101906107e39190610e01565b9050806108205760405162461bcd60e51b815260206004820152600b60248201526a72656c61792071756f746160a81b6044820152606401610424565b505b6007546000908152600b602090815260408083206001600160a01b03861684529091529020546004546108559082610e34565b42101561088f5760405162461bcd60e51b815260206004820152600860248201526731b7b7b63237bbb760c11b6044820152606401610424565b426007546000908152600b602090815260408083206001600160a01b0388168452825280832093909355600854835191820152918201849052606082018690529060800160408051601f1981840301815291815281516020928301206007546000908152600a90935291208054919250906001600160a01b031615806109185750600281015482105b8061093457508060020154821480156109345750600381015442105b156109dc576040518060a00160405280866001600160a01b031681526020018581526020018381526020016109664290565b81526020018260040154600161097c9190610e34565b90526007546000908152600a6020908152604091829020835181546001600160a01b0319166001600160a01b03909116178155908301516001820155908201516002820155606082015160038201556080909101516004909101556109f7565b60018160040160008282546109f19190610e34565b90915550505b846001600160a01b03166007547f738957148e9cf35cbc77ce2fdffee36565f062f7a17cf66c1ce2da3ffaaea6348685610a2e4290565b6040805193845260208401929092529082015260600160405180910390a3505050505050565b6000546001600160a01b03163314610a7e5760405162461bcd60e51b815260040161042490610dc5565b610a8781610cbb565b61048f610b56565b6000546001600160a01b03163314610ab95760405162461bcd60e51b815260040161042490610dc5565b6001600160a01b038116610afb5760405162461bcd60e51b81526020600482015260096024820152683d32b9379030b2323960b91b6044820152606401610424565b600080546040516001600160a01b03808516939216917f8be0079c531659141344cd1fd0a4f28419497f9722a3daafe3b4186f6b6457e091a3600080546001600160a01b0319166001600160a01b0392909216919091179055565b600254600154600354600454600554600654604080516001600160a01b039788168152958716602087015295909316848601526060840191909152608083015260ff16151560a082015290517f6631d8ca5b74873052b905c551100c9137bb12c3ed649f4d384616c9b89772eb9181900360c00190a1565b6000600554610bda4290565b610be49190610e4d565b905090565b610bf1610bce565b600755610bff600143610e6f565b60075460408051924060208401526bffffffffffffffffffffffff193060601b1690830152605482015260740160408051808303601f190181529190528051602090910120600855426009556007546008546040519081527f8e8e4b260c329debf414481814c4ff0f4b88c03ae515e005801d54a1411a71219060200160405180910390a2565b6001546000906001600160a01b031633148015610ca4575060143610155b15610cb6575060131936013560601c90565b503390565b6001546040516001600160a01b038084169216907f06dff7401eb7fb04d241246ade7f817c7ad512b1bed61c18aedd9bc51eec047590600090a3600180546001600160a01b0319166001600160a01b0392909216919091179055565b600060208284031215610d2957600080fd5b5035919050565b801515811461048f57600080fd5b600060208284031215610d5057600080fd5b8135610d5b81610d30565b9392505050565b80356001600160a01b0381168114610d7957600080fd5b919050565b600060208284031215610d9057600080fd5b610d5b82610d62565b60008060408385031215610dac57600080fd5b82359150610dbc60208401610d62565b90509250929050565b6020808252600990820152682737ba1037bbb732b960b91b604082015260600190565b600060208284031215610dfa57600080fd5b5051919050565b600060208284031215610e1357600080fd5b8151610d5b81610d30565b634e487b7160e01b600052601160045260246000fd5b80820180821115610e4757610e47610e1e565b92915050565b600082610e6a57634e487b7160e01b600052601260045260246000fd5b500490565b81810381811115610e4757610e47610e1e56fea2646970667358221220ebb4e26a64b9cfcb5f407b70257039cac237cf7066e72980e59f5914ba5dc45064736f6c63430008180033","linkReferences":{}},"methodIdentifiers":{"bestOfDay(uint256)":"40e5e356","cooldownSeconds()":"b8221bc4","day()":"7b76ac91","epochSeconds()":"fb5bb0c3","forceRoll()":"cbc9023c","getLeaderboard(uint256)":"a34b46fe","isTrustedForwarder(address)":"572b6c05","lastSubmitAt(uint256,address)":"9db9e3bb","owner()":"8da5cb5b","passport()":"17ba9c4d","paused()":"5c975abb","relayManager()":"55b5d88b","rollIfNeeded()":"59ae7279","rolledAt()":"42d435db","seed()":"7d94792a","setCooldown(uint256)":"4fc3f41a","setEpochSeconds(uint256)":"0a812c29","setPassport(address)":"6c670d70","setPaused(bool)":"16c38b3c","setRelayManager(address)":"671a6d8b","setTrustedForwarder(address)":"da742228","submit(bytes32)":"d9caa3d2","transferOwnership(address)":"f2fde38b","trustedForwarder()":"7da0a877"},"id":16}